:100000000C945D000C9485000C9485000C94850084
:100010000C9485000C9485000C9485000C9485004C
:100020000C9485000C9485000C9485000C9485003C
:100030000C9485000C9485000C9485000C9485002C
:100040000C9466030C9485000C9485000C94850038
:100050000C9485000C9485000C9485000C9485000C
:100060000C9485000C9485000000000024002700FB
:100070002A0000000000250028002B0004040404CE
:100080000404040402020202020203030303030342
:10009000010204081020408001020408102001021F
:1000A00004081020000000080002010000030407FB
:1000B0000000000000000000ED0411241FBECFEF7F
:1000C000D8E0DEBFCDBF11E0A0E0B1E0EAE6FAE0A3
:1000D00002C005900D92A834B107D9F721E0A8E439
:1000E000B1E001C01D92AF36B207E1F710E0CDE5F7
:1000F000D0E004C02197FE010E942D05CC35D10728
:10010000C9F70E94B0030C9433050C940000AF9221
:10011000BF92CF92DF92EF92FF920F931F93CF93F4
:10012000DF936C017B018B01040F151FEB015E0156
:10013000AE18BF08C017D10759F06991D601ED91EB
:10014000FC910190F081E02DC6010995892B79F78A
:10015000C501DF91CF911F910F91FF90EF90DF903C
:10016000CF90BF90AF90089590E0FC01EC55FF4F09
:100170002491FC01E057FF4F3491FC01E458FF4FFC
:10018000E491EE23C9F0222339F0233001F1A8F4E1
:10019000213019F1223029F1F0E0EE0FFF1FEE5867
:1001A000FF4FA591B4918FB7F894EC91611126C0DF
:1001B00030953E233C938FBF08952730A9F0283017
:1001C000C9F0243049F7809180008F7D03C0809171
:1001D00080008F7780938000DFCF84B58F7784BDD8
:1001E000DBCF84B58F7DFBCF8091B0008F7780937C
:1001F000B000D2CF8091B0008F7DF9CF3E2BDACF07
:10020000CF93DF9390E0FC01E057FF4F2491845897
:100210009F4FFC0184918823D1F090E0880F991FB3
:10022000FC01E859FF4FA591B491FC01EE58FF4F36
:10023000C591D49161110EC09FB7F8948C91E22FB3
:10024000E0958E238C932881E223E8839FBFDF9182
:10025000CF9108958FB7F894EC91E22BEC938FBF78
:10026000F6CF3FB7F89480914D0190914E01A09147
:100270004F01B091500126B5A89B05C02F3F19F042
:100280000196A11DB11D3FBFBA2FA92F982F882716
:10029000BC01CD01620F711D811D911D42E0660FF1
:1002A000771F881F991F4A95D1F708958F929F92C3
:1002B000AF92BF92CF92DF92EF92FF924B015C011F
:1002C0000E9431016B017C010E9431016C197D0992
:1002D0008E099F09683E734081059105A8F321E0CE
:1002E000821A9108A108B10888EEC80E83E0D81ED2
:1002F000E11CF11C81149104A104B10429F7FF90C1
:10030000EF90DF90CF90BF90AF909F908F90089527
:10031000089590E080E008958F929F92AF92BF92EF
:100320000F931F93CF93DF93CDB7DEB7A1970FB68F
:10033000F894DEBF0FBECDBF19A2423008F44AE0E8
:100340008E010F5D1F4F842E912CB12CA12CA50185
:1003500094010E940B05E62FB901CA01EA3044F569
:10036000E05DD801EE938D01232B242B252B79F70B
:1003700090E080E0109769F0FD0101900020E9F71E
:100380003197AF014A1B5B0BBD0187E591E00E94ED
:100390008700A1960FB6F894DEBF0FBECDBFDF91E8
:1003A000CF911F910F91BF90AF909F908F90089524
:1003B000E95CD7CFFC0101900020E9F73197AF014C
:1003C000481B590BBC0187E591E00C948700CF9343
:1003D000DF93EC0160E08E810E94B40061E08E81C9
:1003E0000E94B40060E08E810E94B4008BE891E02E
:1003F0000197F1F7DF91CF910895CF92DF92EF92BD
:10040000FF920F931F93CF93DF936C017C0187E0E2
:10041000E80EF11CD0E0C0E0062F10E0B8010C2E71
:1004200002C0759567950A94E2F76170F7018191B2
:100430007F010E94B4002196C430D10579F7C6012E
:10044000DF91CF911F910F91FF90EF90DF90CF90B0
:100450000C94E701CF92DF92EF92FF920F931F93DC
:10046000CF93DF93EC01F62E642F8C810E94B400B1
:100470008D818F3F19F060E00E94B4000F2D10E0D5
:100480008F8584FF25C06E0187E0C80ED11CF12C3A
:10049000E12CB8010E2C02C0759567950A94E2F71D
:1004A0006170F60181916F010E94B400FFEFEF1AB5
:1004B000FF0A88E0E816F10461F7CE01DF91CF91E1
:1004C0001F910F91FF90EF90DF90CF900C94E70178
:1004D000B80184E0759567958A95E1F7CE010E9491
:1004E000FD016F2DCE01DF91CF911F910F91FF90F4
:1004F000EF90DF90CF900C94FD0140E0682F87E5EE
:1005000091E00C942A02CF93DF93823029F49091EA
:10051000660198609093660180936A0110926B0166
:1005200080E480936C0180E180936D0180E580938D
:100530006E0161E080915B010E94000180915C018D
:100540008F3F19F061E00E94000161E080915D0140
:100550000E940001C7E5D1E09E01275531408091FE
:10056000660184FD0BC084E090E0219628173907CE
:1005700044F461E08E810E940001EECF88E090E0BB
:10058000F4CF8BE39DE00197F1F760E080915B0190
:100590000E94B40060E080915D010E94B4008091EF
:1005A0005C018F3F19F060E00E94B4008091660109
:1005B00084FD39C063E087E591E00E94FD01CBE452
:1005C000D6E4CE010197F1F763E087E591E00E9460
:1005D000FD012197F1F763E087E591E00E94FD01BD
:1005E00083E592E00197F1F762E087E591E00E94F0
:1005F000FD018091660180620E947D0284E080930B
:1006000067018CE00E947D0281E00E947D028BE305
:100610009FE10197F1F782E08093680186E0DF9126
:10062000CF910C947D0280620E947D028BE496E45F
:100630000197F1F78091660180620E947D0283E557
:1006400092E00197F1F78091660180620E947D023D
:10065000D0CF90916A01891710F08FEF890FE82FA2
:10066000F0E0E95AFE4F848980680C947D0241E0F5
:100670000E942A0281E090E00895CF92DF92EF92EB
:10068000FF926C01990FEE08FF08F7FE16C041E0DB
:100690006DE287E591E00E942A0266277727CB0169
:1006A0006C197D098E099F094AE00E948C01019610
:1006B000FF90EF90DF90CF9008954AE0C701B60118
:1006C000FF90EF90DF90CF900C948C011F920F92CF
:1006D0000FB60F9211242F933F938F939F93AF9355
:1006E000BF938091490190914A01A0914B01B09133
:1006F0004C013091480123E0230F2D3758F5019626
:10070000A11DB11D209348018093490190934A0196
:10071000A0934B01B0934C0180914D0190914E01FB
:10072000A0914F01B09150010196A11DB11D809380
:100730004D0190934E01A0934F01B0935001BF9192
:10074000AF919F918F913F912F910F900FBE0F907E
:100750001F90189526E8230F0296A11DB11DD2CF38
:10076000789484B5826084BD84B5816084BD85B58C
:10077000826085BD85B5816085BD80916E00816098
:1007800080936E001092810080918100826080933E
:100790008100809181008160809381008091800040
:1007A0008160809380008091B10084608093B1006B
:1007B0008091B00081608093B00080917A00846065
:1007C00080937A0080917A00826080937A00809191
:1007D0007A00816080937A0080917A0080688093AB
:1007E0007A001092C10061E08BE00E94000161E09C
:1007F0008DE00E94000160E08EE00E94000182E036
:100800000E94830280E00E9429038CE091E00E9414
:10081000DA0181E00E94290387E191E00E94DA0178
:1008200060ED77E080E090E00E94560181E00E9458
:100830007D028BE39FE10197F1F780E4882E0EE1C2
:1008400010E0C4E6D0E092E3E92EF12C2FEAC22EAC
:1008500020E0D22E34E6932E40E0A42E40E0B42EC9
:1008600080927C0080917A00806480937A008091ED
:100870007A0086FDFCCF80917800809179001093FA
:10088000560100935501D0935401C0935301F09247
:100890005201E092510161E08BE00E940001F601FB
:1008A00084918330C1F148F48130B9F0823071F124
:1008B00060E08BE00E94B40014C08730B1F1883052
:1008C000E1F18430A9F780918000806280938000FC
:1008D000D0938B00C0938A0004C084B5806884BD27
:1008E00097BC80915501909156018A3091056CF525
:1008F0001092540110925301109252011092510122
:1009000060E08BE00E94B40060E026C084B58062A5
:1009100084BD98BCE6CF8091800080688093800081
:10092000D0938900C0938800DCCF8091B0008068AC
:100930008093B0009092B300D4CF8091B0008062D9
:100940008093B0009092B400CCCFC397ECF261E0FA
:100950008BE00E94B40061E08DE00E94B40068EE7C
:1009600073E080E090E00E94560180E00E9429033D
:1009700086E291E00E94DA01809155019091560142
:100980000E943D0360EA87E591E00E94370383E31C
:1009900091E00E94DA0181E00E94290387E391E05F
:1009A0000E94DA0180915101909152010E943D0311
:1009B00082E491E00E94DA0161E08DE00E94B400DF
:1009C00068EC70E080E090E00E945601A114B10450
:1009D00009F446CF0E94000043CFE7E5F1E013821F
:1009E000128284E091E09183808382E084838FEFA0
:1009F000858383E0868384E0878385E0808786E043
:100A0000818787E082871386148615861686178667
:100A100081E00C948302A1E21A2EAA1BBB1BFD01EC
:100A20000DC0AA1FBB1FEE1FFF1FA217B307E407CD
:100A3000F50720F0A21BB30BE40BF50B661F771F25
:100A4000881F991F1A9469F7609570958095909505
:100A50009B01AC01BD01CF010895EE0FFF1F059072
:0A0A6000F491E02D0994F894FFCF03
:100A6A0000000000370387008901880146616E2073
:100A7A00737065656420004F6E2074656D706572D1
:100A8A0061747572650054656D7065726174757212
:100A9A00653A004320200046616E20537065656404
:080AAA003A0025202020000085
:00000001FF
